{
  "contractName": "IxtProtect",
  "abi": [
    {
      "constant": false,
      "inputs": [
        {
          "name": "x",
          "type": "uint256"
        }
      ],
      "name": "set",
      "outputs": [],
      "payable": false,
      "stateMutability": "nonpayable",
      "type": "function"
    },
    {
      "constant": true,
      "inputs": [],
      "name": "get",
      "outputs": [
        {
          "name": "",
          "type": "uint256"
        }
      ],
      "payable": false,
      "stateMutability": "view",
      "type": "function"
    },
    {
      "constant": false,
      "inputs": [
        {
          "name": "proof",
          "type": "string"
        }
      ],
      "name": "join",
      "outputs": [],
      "payable": false,
      "stateMutability": "nonpayable",
      "type": "function"
    },
    {
      "constant": false,
      "inputs": [
        {
          "name": "amount",
          "type": "uint256"
        }
      ],
      "name": "withdraw",
      "outputs": [],
      "payable": false,
      "stateMutability": "nonpayable",
      "type": "function"
    },
    {
      "constant": false,
      "inputs": [
        {
          "name": "amount",
          "type": "uint256"
        }
      ],
      "name": "deposit",
      "outputs": [],
      "payable": false,
      "stateMutability": "nonpayable",
      "type": "function"
    },
    {
      "constant": true,
      "inputs": [],
      "name": "getAccountBalance",
      "outputs": [
        {
          "name": "",
          "type": "uint256"
        }
      ],
      "payable": false,
      "stateMutability": "view",
      "type": "function"
    },
    {
      "constant": true,
      "inputs": [],
      "name": "getRewardBalance",
      "outputs": [
        {
          "name": "",
          "type": "uint256"
        }
      ],
      "payable": false,
      "stateMutability": "view",
      "type": "function"
    },
    {
      "constant": false,
      "inputs": [],
      "name": "halt",
      "outputs": [],
      "payable": false,
      "stateMutability": "nonpayable",
      "type": "function"
    },
    {
      "constant": false,
      "inputs": [
        {
          "name": "amount",
          "type": "uint256"
        }
      ],
      "name": "depositPool",
      "outputs": [],
      "payable": false,
      "stateMutability": "nonpayable",
      "type": "function"
    },
    {
      "constant": false,
      "inputs": [
        {
          "name": "amount",
          "type": "uint256"
        }
      ],
      "name": "withdrawPool",
      "outputs": [],
      "payable": false,
      "stateMutability": "nonpayable",
      "type": "function"
    }
  ],
  "bytecode": "0x608060405234801561001057600080fd5b506102ed806100206000396000f3006080604052600436106100a4576000357c0100000000000000000000000000000000000000000000000000000000900463ffffffff16806323440944146100a95780632e1a7d4d146100d65780634c034ea9146101035780635e42b455146101305780635ed7ca5b1461015b57806360fe47b1146101725780636896fabf1461019f5780636a786b07146101ca5780636d4ce63c14610233578063b6b55f251461025e575b600080fd5b3480156100b557600080fd5b506100d46004803603810190808035906020019092919050505061028b565b005b3480156100e257600080fd5b506101016004803603810190808035906020019092919050505061028e565b005b34801561010f57600080fd5b5061012e60048036038101908080359060200190929190505050610291565b005b34801561013c57600080fd5b50610145610294565b6040518082815260200191505060405180910390f35b34801561016757600080fd5b5061017061029d565b005b34801561017e57600080fd5b5061019d6004803603810190808035906020019092919050505061029f565b005b3480156101ab57600080fd5b506101b46102a9565b6040518082815260200191505060405180910390f35b3480156101d657600080fd5b50610231600480360381019080803590602001908201803590602001908080601f01602080910402602001604051908101604052809392919081815260200183838082843782019150505050505091929192905050506102b2565b005b34801561023f57600080fd5b506102486102b5565b6040518082815260200191505060405180910390f35b34801561026a57600080fd5b50610289600480360381019080803590602001909291905050506102be565b005b50565b50565b50565b6000607b905090565b565b8060008190555050565b6000607b905090565b50565b60008054905090565b505600a165627a7a723058205595ca5ad2d255cab6500221bd7736af18b11fd712eb64e3bfe7ae7d25a37b920029",
  "source": "pragma solidity ^0.4.24;\n\ncontract IxtProtect {\n  uint storedData;\n\n  function set(uint x) public {\n    storedData = x;\n  }\n\n  function get() public view returns (uint) {\n    return storedData;\n  }\n\n  function join(string proof) {\n\n  }\n\n  function withdraw(uint amount) {\n\n  }\n\n  function deposit(uint amount) {\n\n  }\n\n  function getAccountBalance() public view returns (uint) {\n  \treturn 123;\n  }\n\n  function getRewardBalance() public view returns (uint) {\n  \treturn 123;\n  }\n\n  function halt() {\n\n  }\n\n  function depositPool(uint amount) {\n\n  }\n\n  function withdrawPool(uint amount) {\n\n  }\n\n}\n",
  "sourcePath": "/Users/ingemarsvensson/Documents/dev/ixt-tech/b2c/contracts/IxtProtect.sol",
  "compiler": {
    "name": "solc",
    "version": "0.4.24+commit.e67f0147.Emscripten.clang"
  },
  "schemaVersion": "2.0.1",
  "updatedAt": "2018-11-27T09:13:02.763Z"
}